:020000040800F2
:1000000000000220FD280008E5100008E7100008A5
:100010000F11000811110008131100080000000062
:1000200000000000000000000000000015110008A2
:100030001711000800000000191100081B1100082A
:100040004D2900084D2900084D2900084D290008B8
:100050004D2900084D2900084D2900084D290008A8
:100060004D2900084D2900084D2900084D29000898
:100070004D2900084D2900084D2900084D29000888
:100080004D2900084D2900084D2900084D29000878
:100090004D2900084D2900084D2900084D29000868
:1000A0004D2900084D2900084D2900084D29000858
:1000B0004D2900084D2900084D2900084D29000848
:1000C0004D2900084D2900084D2900084D29000838
:1000D0004D2900084D2900084D2900084D29000828
:1000E0004D2900084D2900084D2900084D29000818
:1000F0004D2900084D2900084D2900084D29000808
:100100004D2900084D2900084D2900084D290008F7
:100110004D2900084D2900084D2900084D290008E7
:100120004D2900084D2900084D2900084D290008D7
:100130004D2900084D2900084D2900084D290008C7
:100140004D2900084D2900084D2900084D290008B7
:100150004D2900084D2900084D2900084D290008A7
:100160004D2900084D2900084D2900084D29000897
:100170004D2900084D2900084D2900080000000005
:080180004D2900084D2900087B
:1001880081F0004102E000BF83F0004330B54FEA40
:1001980041044FEA430594EA050F08BF90EA020FAD
:1001A8001FBF54EA000C55EA020C7FEA645C7FEA40
:1001B800655C00F0E2804FEA5454D4EB5555B8BF63
:1001C8006D420CDD2C4480EA020281EA030382EAD4
:1001D800000083EA010180EA020281EA0303362D66
:1001E80088BF30BD11F0004F4FEA01314FF4801C39
:1001F8004CEA113102D0404261EB410113F0004F4B
:100208004FEA03334CEA133302D0524263EB430301
:1002180094EA050F00F0A780A4F10104D5F1200E9F
:100228000DDB02FA0EFC22FA05F2801841F10001FA
:1002380003FA0EF2801843FA05F359410EE0A5F1CE
:1002480020050EF1200E012A03FA0EFC28BF4CF0FF
:10025800020C43FA05F3C01851EBE37101F00045B5
:1002680007D54FF0000EDCF1000C7EEB00006EEBC2
:100278000101B1F5801F1BD3B1F5001F0CD349084C
:100288005FEA30004FEA3C0C04F101044FEA4452A3
:1002980012F5800F80F09A80BCF1004F08BF5FEA2A
:1002A800500C50F1000041EB045141EA050130BD0A
:1002B8005FEA4C0C404141EB0101013C28BFB1F51C
:1002C800801FE9D291F0000F04BF01460020B1FA67
:1002D80081F308BF2033A3F10B03B3F120020CDA3A
:1002E8000C3208DD02F1140CC2F10C0201FA0CF018
:1002F80021FA02F10CE002F11402D8BFC2F1200C7D
:1003080001FA02F120FA0CFCDCBF41EA0C01904032
:10031800E41AA2BF01EB0451294330BD6FEA04047B
:100328001F3C1CDA0C340EDC04F11404C4F1200266
:1003380020FA04F001FA02F340EA030021FA04F378
:1003480045EA030130BDC4F10C04C4F1200220FACF
:1003580002F001FA04F340EA0300294630BD21FA0D
:1003680004F0294630BD94F0000F83F4801306BFD3
:1003780081F480110134013D4EE77FEA645C18BFC7
:100388007FEA655C29D094EA050F08BF90EA020F5E
:1003980005D054EA000C04BF1946104630BD91EA56
:1003A800030F1EBF0021002030BD5FEA545C05D159
:1003B8004000494128BF41F0004130BD14F5800498
:1003C8003CBF01F5801130BD01F0004545F0FE410C
:1003D80041F470014FF0000030BD7FEA645C1ABF41
:1003E800194610467FEA655C1CBF0B46024650EA78
:1003F800013406BF52EA033591EA030F41F40021A4
:1004080030BD00BF90F0000F04BF0021704730B529
:100418004FF4806404F132044FF000054FF00001FE
:1004280050E700BF90F0000F04BF0021704730B5BF
:100438004FF4806404F1320410F0004548BF404294
:100448004FF000013EE700BF42004FEAE2014FEAE9
:1004580031014FEA02701FBF12F07F4393F07F4FC4
:1004680081F06051704732F07F4208BF704793F0C7
:100478007F4F04BF41F40021704730B54FF46074DA
:1004880001F0004521F000411CE700BF50EA0102DD
:1004980008BF704730B54FF000050AE050EA010286
:1004A80008BF704730B511F0004502D5404261EBF6
:1004B80041014FF4806404F132045FEA915C3FF437
:1004C800D8AE4FF003025FEADC0C18BF03325FEAD4
:1004D800DC0C18BF033202EBDC02C2F1200300FA85
:1004E80003FC20FA02F001FA03FE40EA0E0021FAAA
:1004F80002F11444BDE600BF53B94AB9002908BF48
:1005080000281CBF4FF0FF314FF0FF3000F00CB84F
:10051800ADF1080C6DE904CE02F000FDDDF804E051
:10052800DDE9022304B07047704700BF0348044B5D
:10053800834202D0034B03B1184770475C00002088
:100548005C000020000000000548064B1B1AD90F6C
:1005580001EBA301491002D0034B03B118477047C0
:100568005C0000205C0000200000000010B5064C74
:10057800237843B9FFF7DAFF044B13B10448AFF30C
:1005880000800123237010BD5C00002000000000E3
:100598008432000808B5054B1BB105490548AFF37F
:1005A8000080BDE80840FFF7CFBF00BF0000000093
:1005B8006000002084320008C0E9001203817047FF
:1005C80001894068002200F085BF01894068012246
:1005D80000F080BFF0B5002487B006460D461746E8
:1005E80000200A46294902F077F9234645F080029F
:1005F80027498DF80C2020468DF80D40ADF81040A5
:1006080002F06AF92349204602F066F92246318948
:10061800706800F05FFF2049204602F05DF91F492D
:10062800204602F059F90594059B092B28DD1C4941
:10063800002002F051F91B49002002F04DF9642313
:10064800009304AA022303A9306801F05FFB16494E
:1006580002460446002002F03FF93046FFF7B5FF96
:100668009DF811309DF8102010490094002002F0E8
:1006780033F94CB99DF811303B70012007B0F0BD3B
:10068800059B01330593CFE70020F7E79C3200086C
:10069800C2320008DB320008FB32000815330008BC
:1006A8002C3300083E3300086733000895330008F0
:1006B80037B504468DF804108DF80520FFF780FF44
:1006C8006423022201A9206801F076FA0546204633
:1006D800FFF77BFFB5FA85F0400903B030BD000095
:1006E80037B504465049514D002002F0F5F8204630
:1006F800FFF76BFF0A2000F09FFD4D49002002F034
:10070800EBF823684B491A69002002F0E5F82368E2
:1007180049495A69002002F0DFF823684749DA6935
:10072800002002F0D9F82189606800F0CDFE444924
:100738000246002002F0D0F84249002002F0CCF82E
:100748002A684149002002F0C7F82A6A3F4905F59E
:100758008055002002F0C0F82A683D49002002F0C8
:10076800BBF86A693B49A5F56045C2F3C0020020A1
:1007780002F0B2F83849002002F0AEF82A6837498A
:10078800002002F0A9F8AA683549002002F0A4F870
:100798002A683449C2F38012002002F09DF83249D9
:1007A800002002F099F800250DF107020F212046DC
:1007B8008DF80750FFF70EFF30B92C4902F08CF87E
:1007C8000024204603B030BD3F239DF80720284968
:1007D800284602F081F89DF807303F2B02D02549C2
:1007E8002846EBE72449284602F076F867222021BC
:1007F8002046FFF75DFF08B92049DFE72049284672
:1008080002F06AF820462A462421FFF751FF0446E1
:1008180008B91C49D2E71C49284602F05DF80A20AD
:1008280000F00AFDCDE700BFBA330008000002401F
:10083800D2330008ED3300081D340008483400089E
:100848006D34000891340008AF340008D134000832
:10085800F4340008123500082E3500084235000827
:10086800513500085F35000878350008A4350008C0
:10087800C3350008F03500080C3600082E3600088D
:100888004F36000871360008923600082DE9F0430B
:1008980087B000241E46E82305468846174602937B
:1008A8000494ADF80C408DF80E40CDF81340FFF7D6
:1008B80087FE642300932868072304AA02A901F08D
:1008C80025FA81462846FFF780FEB9F1000F0DD1C1
:1008D800BDF81130A8F80030BDF813303B80BDF8E2
:1008E80015303380012007B0BDE8F0832046FAE7D1
:1008F80037B50D4614460DF1060301AA0DF10201A4
:10090800FFF7C4FFA8B1BDF902309FED0B7A07EEDF
:10091800903AF8EEE77ABDF9043067EE877AC5EDCC
:10092800007A07EE903AF8EEE77A67EE877AC4ED38
:10093800007A03B030BD00BF00008038002301609A
:100948004360704730B5046845682468FF206943F0
:100958006A436B43B1FBF0F1B3FBF0F3A163B2FB65
:10096800F0F2E26323649DF80C306B43B3FBF0F3C1
:10097800636330BD07B5002300931A461946FFF795
:10098800E1FF03B000BD10B5044600680368DB6AE8
:100998006360002101F0D6FC2068042101F0D2FC3C
:1009A8002068082101F0CEFC20680C2101F0CAFC67
:1009B8002046BDE81040FFF7DDBF00230360436019
:1009C80070470000F0EE087AB4EEE70AF1EE10FA8C
:1009D80082B01CD9B2EE0E7AB4EEC70AF1EE10FA64
:1009E80017DA30EE670AF2EE087A80EE277AF7EE29
:1009F800007A77EEC77A9FED087A67EE877AFCEE81
:100A0800E77ACDED017A9DF8040002B07047FF2027
:100A1800FBE70020F9E700BF00007F4330B5D0EDC9
:100A2800007ADFED266A9FED267A2DED048B90ED96
:100A3800018A9FED249A67EEA67A28EE268AE0EED0
:100A4800077A83B00446A0EE878AC0ED007AB0EE3C
:100A5800670A80ED018AF7EE000A01F08DFFF7EED4
:100A6800000A60EE098AB0EE480A01F085FF2046C8
:100A780020EE099AB1EE680AFFF7A4FFB0EE490A22
:100A880005462046FFF79EFFB0EE680A014620465D
:100A9800FFF798FF00230246B1EE490A2046FFF708
:100AA80091FF65F3070361F30F2362F3174360F3C4
:100AB8001F63184603B0BDEC048B30BD9A99593FAB
:100AC8009A99193EE02E654230B595B01022002162
:100AD8000AA802F093F91422002103A802F08EF963
:100AE8002A4B002101911A6C42F080521A641B6C47
:100AF80003F080530193019B254B02911A6842F43D
:100B080080421A601B6803F480430293029B01220F
:100B18004FF48033CDE9082302244FF48003CDE954
:100B28000E4308214FF4A873CDE9101304250723B9
:100B380008A8CDE9125300F0D3FC08B172B6FEE75D
:100B48000F23CDE903344FF48053CDE906300590E7
:100B5800214603A800F0A4FE044608B172B6FEE7D9
:100B680000F0E4FA0B4B18684FF47A73B0FBF3F01B
:100B780000F0B6FB284600F0C7FB224621464FF09E
:100B8800FF3000F07FFB15B030BD00BF00380240D9
:100B980000700040000000202DE9F04F99B000F0EF
:100BA8001FFB044608B172B6FEE701F093FCAD499D
:100BB800AD4D204601F090FEAC49204601F08CFE78
:100BC800FFF782FFAA49204601F086FEA94B0D9443
:100BD8001A6BA94942F080021A631A6B02F080026C
:100BE8000D920D9A0E941A6B42F001021A631A6B59
:100BF80002F001020E920E9A0F941A6B42F008024C
:100C08001A631A6B02F008020F920F9A10941A6B6B
:100C180042F010021A631B6B03F010031093204676
:100C2800109B01F059FE1C22214611A802F0E6F89B
:100C3800924BAC60C5E90034914B2846C5E90334B2
:100C48008023AB6101F052FA024608B172B6FEE7A2
:100C58006023CDE911301390159011A9284601F0B1
:100C6800A9FA08B172B6FEE7042211A9284601F0D4
:100C7800A1FA08B172B6FEE7082211A9284601F0C8
:100C880099FA08B172B6FEE70C2211A9284601F0BC
:100C980091FA074608B172B6FEE77A497A4EDFF84C
:100CA800508201F019FE3946284601F04BFB042119
:100CB800284601F047FB0821284601F043FB0C2198
:100CC800284601F03FFB7149384601F005FE2B68C4
:100CD8006F49DA6A5A6338469A63DA631A6401F02C
:100CE800FBFD4FF47A7000F0A7FA6A49384601F024
:100CF800F3FD6949384601F0EFFD4FF48273102483
:100D0800C6E900836549B7624FF400734FF0020AE1
:100D18004FF001093846C6E90634C6E90277C6E944
:100D280004A9C6E9087701F0D7FD32695C49534642
:100D3800384601F0D1FD72695A494B46384601F0F0
:100D4800CBFDF26958492346384601F0C5FD3046C7
:100D580000F0D6FE554904460246384601F0BCFD6F
:100D68002CB15349384601F0B7FD72B6FEE7D8F802
:100D780000205049504FDFF87C91204601F0ACFD2F
:100D8800D8F800204D4902F00102204601F0A4FDE8
:100D9800D8F800204A49C2F34002204601F09CFDE1
:100DA800D8F800204749C2F3C202204601F094FD5A
:100DB80032684549136843F040031360D8F80020AF
:100DC800204601F089FDD8F800204049C2F380127E
:100DD800204601F081FD3E49204601F07DFD3D4958
:100DE800204601F079FD0C2001F0ADFD3A4A0823B8
:100DF80031468046FFF7E0FB0820C7F8008001F085
:100E0800A2FDDFF8F48029460646FFF797FD082083
:100E1800C8F8006001F097FD0546FFF7CEFD2F49A1
:100E2800C9F80050204601F057FDD8F80000FFF738
:100E3800AAFD2B49204601F04FFD2A49204601F022
:100E48004BFD3868FFF74CFC27490546024620460B
:100E580001F042FD002D51D12449284601F03CFD06
:100E680072B6FEE7C4360008DC000020E136000850
:100E7800F236000800380240083700080008004031
:100E88001F4801001A370008840000203437000882
:100E9800533700087E370008A2370008B837000823
:100EA800D4370008013800082938000859380008E4
:100EB800803800089D38000880000020C3380008EA
:100EC800D7380008EB38000800390008283900082E
:100ED800453900085A390008001002406C390008EA
:100EE8007D39000899390008B9390008D539000852
:100EF80000300140780000207C0000202449204672
:100F080001F0EAFC2349204601F0E6FC38680CAA07
:100F18000BA9FFF7EDFC002835D0DDED0C0A9DED9F
:100F28000B0AD9F80000FFF779FDC3B2050E079345
:100F3800C0F3072AC0F3074B009511905B46079949
:100F4800D8F800005246FFF7FDFC6423B4FBF3F623
:100F580003FB1646BEB90B98FFF776FA02460B4616
:100F6800CDE908230C98079B0293CDE904B5CDF889
:100F78000CA0FFF769FADDE90823CDE9000106496D
:100F8800304601F0A9FC0A20013400F055F9BDE70C
:100F9800F8390008203A0008383A000882B00C4BAB
:100FA800002100915A6C42F480425A645A6C02F44F
:100FB80080420092009A01911A6C42F080521A64A1
:100FC8001B6C03F080530193019B02B0704700BF74
:100FD80000380240F0B5044689B01422002103A865
:100FE80001F00CFF2268204B9A423BD103F5843371
:100FF800002400945A6C1D4842F480525A645A6C7A
:1010080002F480520092009A01941A6B42F0010295
:101018001A631A6B02F001020192019A02941A6B88
:1010280042F010021A631B6B03F010030293E022D4
:10103800029B0223CDE903230327052303A9CDE956
:101048000673082500F06CF90126094803A9CDE9C3
:101058000356CDE9054700F063F9054832462946AD
:1010680000F038FA09B0F0BD00300140000002403D
:101078000010024010B5044688B01422002103A8CD
:1010880001F0BCFE2268134B9A4220D103F50C33C1
:10109800002101911A6C104842F004021A641A6C7B
:1010A80002F004020192019A02911A6B42F00802BE
:1010B8001A631B6B03F008030293029B4FF4704200
:1010C800022303A9CDE90323079300F029F908B007
:1010D80010BD00BF00080040000C0240FEE74FF0C2
:1010E800E02384B0D3F8282D0092D3F82C2D019258
:1010F800D3F8342D0292D3F8383D0393009B019B1B
:10110800029B039BFEE7FEE7FEE7FEE7704770479A
:10111800704700F07FB80000034AD2F8883043F4E3
:101128007003C2F88830704700ED00E0154B9A68EC
:1011380002F00C02042A21D0082A21D159685A68E1
:101148005B684902C3F388134CBF0F490F4902F08B
:101158003F02B1FBF2F253430A4A5268C2F301421A
:1011680001325200B3FBF2F3064A09499268C2F30E
:1011780003128A5CD340074A13607047024BF3E7B7
:10118800024BF1E70038024000127A000024F40014
:10119800763A00080000002038B50E4B1A784FF454
:1011A8007A73B3FBF2F30C4A05461068B0FBF3F010
:1011B80000F096F8044658B90F2D09D8024629467A
:1011C8004FF0FF3000F05EF8044B20461D6038BD3C
:1011D8000120FCE704000020000000200800002097
:1011E80008B50B4B1A6842F400721A601A6842F488
:1011F80080621A601A6842F480721A60032000F054
:101208002FF80F20FFF7C8FFFFF7C8FE002008BD22
:10121800003C0240034A044B11681B780B441360DE
:10122800704700BF2401002004000020014B18680B
:10123800704700BF2401002038B50446FFF7F6FFC9
:10124800631C1CBF054B1B78054618BFE418FFF745
:10125800EDFF401BA042FAD338BD00BF04000020B8
:101268000749CA6822F4E0620302120403F4E06347
:10127800120C134343F0BF6343F40033CB60704751
:1012880000ED00E0144BDB68C3F3022330B5DD1E2C
:10129800042D94BFC3F1070304234FF0FF3488BF24
:1012A800002504FA03F321EA0301AC40002822EAEE
:1012B800040201FA05F141EA0201AEBF00F1604003
:1012C800064A00F00F004FEA0113AABF00F561407B
:1012D800135480F8003330BD00ED00E014ED00E059
:1012E8000138B0F1807F0BD24FF0E023054A5861F6
:1012F800F02182F823100020072298611A617047B4
:101308000120704700ED00E04FF0E02304281A693F
:101318000CBF42F0040222F004021A617047000078
:101328002DE9F74FDFF89C81644C00220E680123F9
:1013380003FA02F505EA0603B54340F0AA804E68B1
:10134800032706F003054FEA420E07FA0EF96F1E4F
:10135800012F34D8876827EA090CCF6807FA0EF7F7
:1013680047EA0C078760476827EA030CC6F30017AB
:10137800974047EA0C074760C76827EA090C8F6857
:1013880007FA0EF747EA0C07022DC76019D14FEA92
:10139800D20A00EB8A0A02F0070BDAF820704FEA4B
:1013A8008B0B4FF00F0C0CFA0BFC27EA0C0C0F6997
:1013B80007FA0BF747EA0C07CAF8207001E0032D7B
:1013C800DAD1076805FA0EF527EA09073D4316F44E
:1013D800403F05605DD000250195D8F8445045F49C
:1013E8008045C8F84450D8F8445022F0030707F164
:1013F800804705F4804507F59C37019502F0030CFA
:10140800019DD7F808E04FEA8C0C0F2505FA0CF57A
:101418002EEA050E2A4DA84242D005F58065A8425D
:1014280040D005F58065A8423ED005F58065A84204
:101438003CD005F58065A8423AD005F58065A842FC
:1014480038D005F58065A84236D005F58065A842F4
:1014580014BF0825072505FA0CF545EA0E05BD60F9
:10146800A568F70254BF9D431D43A560E568B70210
:1014780054BF9D431D43E5606568B70354BF9D4352
:101488001D4365602568F60354BF25EA03032B4313
:1014980023600132102A7FF449AF03B0BDE8F08F12
:1014A8000025D8E70125D6E70225D4E70325D2E7AA
:1014B8000425D0E70525CEE70625CCE7003C01400A
:1014C80000000240003802400369194214BF01209D
:1014D800002070470AB1816170470904FBE70000EA
:1014E8002DE9F3410446002828D00368DE0710D40C
:1014F80023689D075BD42368190700F19D80236842
:101508005A0700F1BD80A369002B40F02781002015
:101518002CE08F4B9A6802F00C02042A07D09A68D4
:1015280002F00C02082A0BD15B68590208D5884BD7
:101538001B689A03DCD56368002BD9D1012015E01C
:101548006368834DB3F5803F13D12B6843F4803330
:101558002B60FFF76BFE7E4D06462B689B03C7D4B6
:10156800FFF764FE801B6428F7D9032002B0BDE8AA
:10157800F081B3F5A02F04D12B6843F480232B60AE
:10158800E3E72A6822F480322A602A6822F480225B
:101598002A60002BDDD1FFF749FE06462B689F0322
:1015A800A6D5FFF743FE801B6428F7D9DDE7684B13
:1015B8009A6812F00C0F07D09A6802F00C02082AF9
:1015C80011D15B685D020ED4614A1368990702D590
:1015D800E368012BB2D11368216923F0F80343EAC9
:1015E800C103136087E7E2685A4BB2B101221A605F
:1015F800FFF71CFE564D06462B689B0707D52B6840
:10160800226923F0F80343EAC2032B6073E7FFF76C
:101618000DFE801B0228EFD9A7E71A60FFF706FE28
:101628004B4D06462B689F077FF565AFFFF7FEFD1C
:10163800801B0228F6D998E76269464B82B10122DD
:10164800C3F8802EFFF7F2FD414D06466B6F9B07EE
:101658003FF555AFFFF7EAFD801B0228F6D984E76E
:10166800C3F8802EFFF7E2FD394D06466B6F9F07E2
:101678007FF545AFFFF7DAFD801B0228F6D974E73E
:10168800334B1A6C12F0805228D101921A6C42F036
:1016980080521A641B6C03F080530193019B01264E
:1016A8002D4D2B68D8051BD5A368294D012B27D1B3
:1016B8002B6F43F001032B67FFF7B8FD244D8046DD
:1016C80041F288372B6F9A073AD5002E3FF41BAFAB
:1016D8001F4A136C23F08053136414E70026DFE7D6
:1016E8002B6843F480732B60FFF7A0FD07462B6837
:1016F800D905D9D4FFF79AFDC01B0228F7D934E7DA
:10170800052B04D12B6F43F004032B67D0E72A6F16
:1017180022F001022A672A6F22F004022A67002BAE
:10172800CAD1FFF783FD41F2883780462B6F9B07AC
:10173800CBD5FFF77BFDA0EB0800B842F6D914E73C
:10174800FFF774FDA0EB0800B842BBD90DE700BF56
:10175800003802400000474200700040374DAA6838
:1017680002F00C02082A3ED0022B354B4FF0000243
:101778001A662BD1FFF75AFD06462B6899011FD42C
:10178800D4E907321343626A43EA8213E26A43EAFE
:101798000263A26A294C5208013A43EA02436B6089
:1017A800274B01221A66FFF741FD054623689A0177
:1017B8003FF5ADAEFFF73AFD401B0228F6D9D4E657
:1017C800FFF734FD801B0228D7D9CEE6FFF72EFDA0
:1017D80004462B689B017FF59AAEFFF727FD001B97
:1017E8000228F6D9C1E6012B3FF4A8AE6B68E2697E
:1017F80003F4800191427FF4A1AE216A03F03F0215
:101808008A427FF49BAE616A47F6C0721A40B2EB17
:10181800811F7FF493AEA26A520803F44031013A63
:10182800B1EB024F7FF48AAEE26A03F07063B3EB68
:10183800026F14BF0120002098E600BF0038024064
:1018480000004742134908B58B6803F00C03042BCA
:101858001CD0082B1CD14A684B68496813F48003D4
:1018680014BF0D480D48C1F3881118BF002302F0BA
:101878003F02A1FB0001FEF73FFE064B5B68C3F386
:10188800014301335B00B0FBF3F008BD0248FCE7FD
:101898000248FAE70038024000127A000024F400F7
:1018A8002DE9F04104460D4610B90120BDE8F0814C
:1018B800434B1A6802F007028A4228D321688F072F
:1018C8002DD4C80740D43E4B1A6802F00702AA423A
:1018D80065D8226851076AD4130707D5394A2169A0
:1018E800936823F4604343EAC1039360FFF7AAFFB8
:1018F800344B354A9B68C3F30313D35CD840334B4E
:101908001860334B1868FFF747FC0020CEE71970C2
:101918001B6803F007038B420A46C6D1CEE7294B62
:1019280011F0040F1EBF9A6842F4E0529A600E0745
:1019380042BF9A6842F460429A609A68A06822F0AE
:10194800F00202439A60BCE762681E4B012A1CD170
:101958001B6813F4003FA8D01A4EB36823F00303A2
:101968001343B360FFF762FC41F288380746B36857
:10197800626803F00C03B3EB820FA4D0FFF756FCA8
:10198800C01B4045F3D9032090E7911E01291B682D
:1019980002D813F0007FDEE713F0020FDBE71D70BB
:1019A8001B6803F00703AB427FF47FAF91E705495B
:1019B800E0688B6823F4E05303438B608CE700BF37
:1019C800003C024000380240763A0008000000203F
:1019D800080000202DE9F7431E46884617460446AE
:1019E800FFF724FC0A9D35442D1AFFF71FFC254BF1
:1019F8001B68C3F3CB3381466B430193226893681A
:101A080038EA03030CBF01230023BB4201D10020A5
:101A18002EE0731CF3D0FFF709FCA0EB0900A842E5
:101A280029D323685A6822F0E0025A606268B2F546
:101A3800827F0AD1A268B2F5004F02D0B2F5806F5A
:101A480003D11A6822F040021A60A26AB2F5005F58
:101A580007D11A6822F400521A601A6842F4005238
:101A68001A60012384F85130002384F85030032091
:101A780003B0BDE8F083019B13B1019B013BBCE7B8
:101A88001D46BBE700000020F0B585B00B4600926C
:101A98000E461746022101220446FFF79BFF054622
:101AA80028B1636D43F020036365032515E0124BED
:101AB8001A68124BB2FBF3F24FF47A735A43636815
:101AC8000392B3F5827F0BD10246009733468021FB
:101AD8002046FFF77FFF0028E3D1284605B0F0BD78
:101AE800039B002BF9D0039B013B039323689B685E
:101AF8001B06F5D4F1E700BF0000002000366E0198
:101B080010B50446002855D0436A002B4ED14268D0
:101B1800B2F5827F00D0C3610023A36294F85130EC
:101B280003F0FF0223B984F850202046FFF752FA49
:101B38002168A068A269022384F851300B6823F059
:101B480040030B60636800F4044003F482730343AA
:101B5800E06800F400600343206900F002000343DA
:101B6800606900F00100034302F400700343E06978
:101B780000F038000343206A00F080000343A06AA5
:101B880000F4005003430B60636A120C03F0100367
:101B980002F004021A434A60CB6923F40063CB6164
:101BA80000200123606584F8513010BD0023C0E98E
:101BB8000433B1E70120F8E72DE9F34104461F4655
:101BC8000D461646FFF732FB94F85130012B80463C
:101BD800D8B240F09980002D70D0002E6ED094F8C5
:101BE8005030012B00F09080032384F85130A36813
:101BF80084F85000B3F5004F4FF000006065C4E969
:101C08001000E686A063A087E08725632068A68683
:101C180007D1036823F040030360036843F480435B
:101C280003600368E2685B065EBF036843F0400335
:101C38000360B2F5006F636843D10BB1012E06D182
:101C480035F8023BC3602563E38E013BE386E38EF0
:101C58009BB2D3B9424639462046FFF715FF002804
:101C68004FD1A36833B901932368DA6801929B685E
:101C78000193019B012384F85130606D0023C01A41
:101C880084F8503018BF012018E02268936898073C
:101C980005D5236B33F8021BD1602363D4E7FFF724
:101CA800C5FAA0EB0800B842D1D3791CCFD00123E4
:101CB80084F85130002384F85030032002B0BDE886
:101CC800F0810BB1012E07D12B780373236B0133FD
:101CD8002363E38E013BE386E38E9BB2002BB9D0EE
:101CE80023689A68920703D5226B12781A73EDE776
:101CF800FFF79CFAA0EB0800B842EDD37B1CEBD0B1
:101D0800D5E720236365ACE70220D7E72DE9F74341
:101D180004460E4691461D460A9FFFF787FA94F837
:101D280051306168012B8046DAB20AD0B1F5827F62
:101D380040F0DE80A368002B40F0DA80042A40F0EF
:101D4800D780002E49D0B9F1000F46D0002D44D0DD
:101D580094F85030012B00F0CB80012384F85030E8
:101D680094F85130C4F83890042B1CBF052384F82C
:101D7800513000236365C4E910332368E587E5869D
:101D88001A68A587520658BF1A68266358BF42F0DA
:101D98004002A58658BF1A60E268B2F5006F51D1BB
:101DA80009B1012D06D136F8022BDA60E38E2663DD
:101DB800013BE3860125E38E9BB283B9E38F9BB297
:101DC8006BB9424639462046FFF75EFE00287BD0B5
:101DD80020236365002384F8503001202FE0226817
:101DE80093689E070CD5E38E9BB24BB13DB1236B34
:101DF80033F8021BD1602363E38E013BE3860025A1
:101E0800936813F001030BD0E18F89B241B1D16817
:101E1800A26B22F8021BA263E28F013AE2871D46F9
:101E2800FFF704FAA0EB0800B842C4D3781CC2D06C
:101E3800012384F85130002384F85030032003B084
:101E4800BDE8F08309B1012D07D132781A73236BED
:101E580001332363E38E013BE38601252BE02268EF
:101E6800936899070DD5E38E9BB253B145B1236BA7
:101E78001B781373236B01332363E38E013BE386E3
:101E8800002521688B6813F001030CD0E28F92B211
:101E98004AB1A26BC9681170A26B0132A263E28FCA
:101EA800013AE2871D46FFF7C1F9A0EB0800B842E6
:101EB80001D37B1CBCD1E38E9BB2002BCFD1E38F27
:101EC8009BB2002BCBD17CE7A36833B9019323687D
:101ED800DA6801929B680193019B012384F85130D1
:101EE800606D0023C01A84F8503018BF0120A6E79F
:101EF8000220A4E7036A026A22F0010270B50262B6
:101F0800456884690A6824F0730414438A6823F0D6
:101F180002031343104A904203D002F580629042B4
:101F280014D1026A22F004020262CA6823F008038C
:101F38001343094A904203D002F58062904205D1CA
:101F4800D1E9052625F44075324315434A684560B2
:101F580084614263036270BD00000140036A026A43
:101F680022F4807270B502624568C4690A6824F078
:101F7800730414438A6823F4007343EA0223124A61
:101F8800904203D002F58062904216D1026A22F490
:101F980080620262CA6823F4006343EA02230A4AA1
:101FA800904203D002F58062904206D1D1E905261D
:101FB80025F44055324345EA02154A684560C46134
:101FC800C263036270BD00BF00000140036A026A79
:101FD80022F4805230B502624468C2690D6822F466
:101FE800E64242EA05228D6823F4005343EA0533AA
:101FF800084DA84203D005F58065A84204D14D6973
:1020080024F4804444EA85144460C2614A68026446
:10201800036230BD00000140314A0368904212D08B
:10202800B0F1804F0FD0A2F57C4290420BD002F560
:102038008062904207D002F58062904203D002F598
:102048007842904241D14A6823F070031343244AEE
:1020580090421DD0B0F1804F1AD0A2F57C42904238
:1020680016D002F58062904212D002F5806290424A
:102078000ED002F5784290420AD01A4A904207D010
:1020880002F58062904203D002F58062904203D14B
:10209800CA6823F4407313434A6923F08003134347
:1020A8008A68C2620A6882620D4A904203D002F5C9
:1020B8008062904201D10A690263026842F0040218
:1020C80002600122426103607047074A9042DFD0F4
:1020D80002F580629042DBD002F58062CBE700BF58
:1020E80000000140001800400040014010B50446BF
:1020F80030B390F83D3003F0FF021BB980F83C2064
:10210800FEF7B8FF0223206884F83D30211DFFF751
:1021180083FF012384F84630002084F83E3084F899
:102128003F3084F8403084F8413084F8423084F8F5
:10213800433084F8443084F8453084F83D3010BD8D
:102148000120FCE7036A026A22F0100270B50262FD
:10215800456884690A6824F4E64444EA02248A68E3
:1021680023F0200343EA0213114A904203D002F5F8
:102178008062904216D1026A22F040020262CA6866
:1021880023F0800343EA0213094A904203D002F580
:102198008062904206D1D1E9052625F44065324394
:1021A80045EA82054A68456084618263036270BDBE
:1021B8000000014038B590F83C30012B04464DD062
:1021C800082A3BD007D8C2B1042A27D0012000230F
:1021D80084F83C3038BD0C2AF8D10068FFF7F6FEC9
:1021E800C3690A6943F40063C361C36923F4806364
:1021F800C361C36943EA02232EE00068FFF77AFE51
:1022080083690A6943F008038361836923F004033F
:1022180083618369134383610020D8E70068FFF76F
:1022280091FF83690A6943F400638361836923F436
:1022380080638361836943EA0223ECE70068FFF760
:102248008DFEC3690A6943F00803C361C36923F0BB
:102258000403C361C3691343C361DDE70220B9E71F
:10226800036A10B501F01F0101248C4023EA04031E
:102278000362036A8A401A43026210BD08B529B98D
:1022880090F83E30012B18D001202CE004290DD104
:1022980090F83F30013B18BF0123002BF4D10429EB
:1022A8004FF0020320D180F83F3009E008290CBF25
:1022B80090F8403090F84130ECE7022380F83E3047
:1022C80000680122FFF7CCFF1B4A904213D01B4B3A
:1022D800984210D0B0F1804F23D1836803F00703F0
:1022E800062B19D1002008BD08290CBF80F8403002
:1022F80080F84130E4E7436C43F400434364904280
:10230800EBD00E4B9842E8D003F570539842E4D0D6
:10231800A3F594339842E0D0036843F001030360C7
:10232800E0E7074B9842D8D003F580639842D4D0B1
:1023380003F580639842E3E7000001400004014090
:1023480000040040FFF79ABF0369C26893429CBF2C
:1023580081685B18013B981A70472DE9F041D0E974
:10236800027405463E1B4068964220448846144441
:1023780006D900F0C5FDBFF35F8FEC60BDE8F081C2
:102388003246E41B00F0BCFD6868224608EB0601F3
:10239800EFE72DE9F843C5680646894617464FF02A
:1023A80000083369B46870689D4228BF1B19641B14
:1023B800BC4203F1FF3328BF3C465B1B9C4228BF4D
:1023C8001C4649462246284400F09AFDB368254435
:1023D800A044A1443F1BAB4208BF0025BFF35F8F59
:1023E800F560002FDDD14046BDE8F88308B57822B6
:1023F8000021134800F002FD0222026111494261E6
:10240800114A8161C2614FF48062026200228262D5
:102418004262C26281640D49C164102101650346AC
:1024280082654265C265BFF35F8F094911F8010DE6
:1024380098540132102AF9D1BFF35F8F08BD00BF4D
:1024480038050020663A00083801002028010020DD
:10245800963A0008F8B5144B182600FB06651D448B
:1024680006FB00330F46DB6A012B14460AD0022B09
:1024780014D023B92846FFF767FF844208D90024FF
:102488002046F8BD2846FFF75FFF844228BF044670
:10249800224639462846FFF760FFF1E72846BDE89F
:1024A800F840FFF776BF00BF3805002070B5084B2D
:1024B8001B78532B04460D46164601D0FFF796FFAE
:1024C800324629462046BDE87040FFF7C3BF00BF2B
:1024D80038050020FFF78ABF826810B504464068B7
:1024E800531C834206D820688154E268A3600132F5
:1024F800E2601A46636893420BD121682069FFF7AE
:10250800D5FFA368984215BF4FF0FF330023E3605F
:10251800A36010BD2DE9F84F9946DDE90A43174637
:10252800064688460A464FF0010ABA4223D2CA45EF
:1025380038BFCA4613F0010B12D18CB19B071FD5C7
:10254800B9F1000F0CBF30252025A24508D2294635
:102558003046FFF7C1FFF368002B04F1FF3411DAAE
:10256800F368002B2CDB0125B9F1010F0ED909F115
:10257800FF397D43F8E70AF1010AB2FBF7F2D4E725
:102588002025E2E7002CE0D1EAE77D43B8FBF5F32C
:102598009F42FAD9124AB8FBF5F9304612F80910E9
:1025A800FFF79AFFF368002B06DBB5FBF7F3BD4294
:1025B8000B4A05FB198805D2BBF1000F00D064B99E
:1025C800BDE8F88F1D46E6E720213046FFF784FF77
:1025D800F368002B04F1FF34F2DB5445F4D8EFE73D
:1025E800973A00082DE9F04F9BB00AAB05930024F9
:1025F800402303908846174606930990254698F885
:102608000010002900F05C81252940F04F8108F175
:1026180001014FF0000A0B782D2B18D012D8232B6C
:102628001CD02B2B17D000260A20884611F8013B16
:10263800A3F1300CBCF1090F13D800FB0633A3F14A
:102648003006F2E7302BEED14AF0020A01E04AF0F8
:10265800010A0131DFE74AF0040AFAE74AF0080AFA
:10266800F7E72E2B29D198F801302A2B11D13B6896
:10267800191DD3F800B0396008F102084FF00109BC
:1026880098F8001001F0FB0068281AD118F8011F0B
:10269800F8E74FF0000BD9464FF00A0C0878A0F184
:1026A800300EBEF1090F8846EAD80CFB0B00013149
:1026B800A0F1300B4FF00109F0E74FF0000BD946BD
:1026C800DEE7782902D908F1010898E76F2912D8BE
:1026D800632971D028D8252900F0E5805829F2D13E
:1026E8003968081D38600968CDE90754CDE9006AE2
:1026F8005B461022A1E070390829E4D801A050F8FF
:1027080021F000BF99280008CF260008CF2600082E
:102718004B280008CF2600082F280008CF260008DD
:10272800CF260008E92600086429CCD13968D1F8F9
:102738000090081D386089EAE970A0EBE970012172
:102748004FF00A0C092843DC59452CBF0291CDF8FB
:1027580008B036B1B9F1000F02DB1AF0040F00D04F
:10276800013E1AF0020F02D0BBF1000F04D01AF09C
:10277800010F01D1002E3BD1B9F1000F3CDACDE9B0
:102788000754C9F100092D2105A8FFF7A5FEDDE9C9
:102798000754002C73DB0AF00301022904D1BBF1B2
:1027A800000F01D1002E3AD1CDE90754CDE9006AD6
:1027B8005B460A22494640E03B68CDE907541A1DAA
:1027C80019783A6005A8FFF787FEDDE9075451E05C
:1027D8000131B0FBFCF0B5E7202105A8CDE907548D
:1027E800FFF77AFE089C002C49DB013E079DC3D009
:1027F800029BB342F0D3BFE71AF0040FCBD0CDE968
:1028080007542B21C0E7302105A8CDE90754FFF76D
:1028180063FE089C002C32DB013E079DC4D0029B5E
:10282800B342F0D3C0E73968081D38600968CDE9BC
:102838000754CDE9006A5B460A2205A8FFF76AFE3D
:10284800C3E73A68111D3960166816B9214E4FF072
:10285800000906F1FF3A1AF8011F59B1B9F1000F42
:1028680011D105A8CDE90754FFF736FEDDE9075475
:10287800002CF0DA08F10108002CBFF6C0AE2046A3
:102888001BB0BDE8F08FABEB0A00C642E9D1F1E717
:102898003B681A1D19683A6008230022CDE90754DD
:1028A800CDE9003225E7CDE907548BE705A8CDE946
:1028B800075408F10108FFF70FFEDDE90754DBE7CD
:1028C800002CDCD025B103982A460AA9FFF7EEFDB3
:1028D8002C44D4E76F3A00080EB403B503AB01AA41
:1028E80053F8041B0193FFF77DFE02B05DF804EB7B
:1028F80003B07047DFF834D0FEF70EFC0C480D49E2
:102908000D4A002302E0D458C4500433C4188C4242
:10291800F9D30A4A0A4C002301E013600432A242A8
:10292800FBD300F0C7FAFEF737F970470000022022
:10293800000000205C000020F03A00085C00002045
:1029480000070020FEE7012838BF012010B5044623
:10295800204600F0A1F900B110BD00F005F808B953
:1029680000F092F98047F3E7024B1868BFF35B8FDA
:10297800704700BFB005002000F000B810EE903A94
:1029880023F00041B1F1FF4FF0EE407A33D810EE5A
:1029980010CA2CF00040B0F1FF4F2CD8B3F17E5F85
:1029A8003DD09A1702F0020242EADC7230B371B3EA
:1029B800B1F1FF4F3ED0B0F1FF4F35D000B5401A0E
:1029C800B0F1F45F83B04FEAE0512ADA002B3EDA27
:1029D8003C313CDA9FED310A012A41D0022A46D027
:1029E8003AB19FED2F7ADFED2F7A30EE070A30EEFD
:1029F800670A03B000BD30EEA70A7047022A0BD061
:102A08009FED297A032A08BFB0EE470A70478C4524
:102A18000DDB9FED260A70479FED220A704700F0F4
:102A28004FB89FED220AD7E7BCF1000FF1DA9FED0E
:102A3800200A7047B0F1FF4F02F1FF3220D0022A7E
:102A480026D81C4B03EB820393ED000A704787EEF0
:102A5800A00A019200F010F900F032F8019ABBE7E1
:102A680010EE103A03F1004300EE103AC1E79FED73
:102A78000C7ADFED0C7A30EE070A37EEC00AB8E7B9
:102A8800022A08D80C4B03EB820393ED000A704727
:102A98009FED020A70479FED090A70470000000089
:102AA8002EBDBB33DB0F4940DB0F49C0DB0FC93FED
:102AB800DB0FC9BFA83A0008B43A0008DB0F493F4A
:102AC80010EE102A22F00043B3F1A14FF0EE407A45
:102AD80007D3B3F1FF4F56D8002A7CDD9FED530A88
:102AE800704700B552498B4283B05BD8B3F1445F5D
:102AF8004CD34FF0FF3327EEA76A9FED4E5A9FED58
:102B08004E7ADFED4E5ADFED4E4A66EE066A591CE4
:102B1800A6EE857AE6EEA54A9FED4A5ADFED4A5AB7
:102B2800A7EE265AE4EEA65A9FED487ADFED484A0A
:102B3800A5EE267AE5EEA64A9FED465ADFED465AFF
:102B4800A7EE265A9FED457AA4EEA67AE5EE265A18
:102B580027EE267AA5EE867A27EE277A42D04048D5
:102B6800404900EB8300D0ED006A37EE667A01EB4E
:102B78008303D3ED006A37EE677A002A36EEC70A78
:102B88002CDB03B000BD30EE000A70479FED367AAB
:102B980030EE077AF7EE006AB4EEE67AF1EE10FA54
:102BA800A7DDEEE7CDE9003200F066F82F49009B7B
:102BB800019A8B421AD8A1F5D0018B422BD8F0EE9E
:102BC800007ABFEE007AA0EE277A002330EE270ABB
:102BD800C7EE007A8FE79FED260A7047B1EE400AEC
:102BE80003B000BD37EEC70A03B000BD21498B42D0
:102BF8000BD8F7EE087AB7EE007AA0EE277A022310
:102C080030EE670AC0EE077A75E7BFEE007AC7EEC6
:102C1800007A03236FE7F7EE007A30EE677A30EE3A
:102C2800270A0123C7EE007A65E700BFDB0FC93F1B
:102C3800FFFFDF3ED769853C59DA4B3D21A215BD20
:102C48006BF16EBD356B883D95879DBD6E2EBA3D87
:102C5800388EE3BD2549123EABAAAA3ECDCC4CBE68
:102C6800C03A0008D03A0008CAF24971FFFF973FFE
:102C7800DB0FC9BFFFFF1B4010EE103A23F00043E3
:102C880000EE103A704700BF08B5062000F0E6F8DD
:102C9800012000F0F1FA0000024B0146186800F02C
:102CA80025B800BF0C00002070B50F4C0E462168F7
:102CB800054611B900F0EEF820603146284600F0CC
:102CC800E9F8431C03D14FF0FF34204670BDC41C03
:102CD80024F00304A042F8D0211A284600F0DAF8BC
:102CE8000130F2D1EFE700BFB40500202DE9F84329
:102CF800CD1C25F0030508350C2D38BF0C25002DFB
:102D0800064601DBA94204D90C2333600020BDE844
:102D1800F883334F00F066F83B681C463CBB2946F5
:102D28003046FFF7C1FF431C044656D13C68A04615
:102D3800B8F1000F40D1002C49D0236841463046F5
:102D480004EB030900F0A6F8814540D121686D1A0B
:102D580029463046FFF7A8FF013038D023682B44B6
:102D680023603B685A685ABBC7F800800EE02268A7
:102D7800521B1ED40B2A16D96119A342256018BF0D
:102D88005960636808BF396062514B60304600F093
:102D98002FF804F10B00231D20F00700C21A1CBFF6
:102DA8001B1AA350B3E76268A3420CBF3A605A608B
:102DB800ECE723466468B1E74446D8F80480B7E7EF
:102DC8001A465B68A342FBD100235360DEE70C235D
:102DD8003360304600F00CF898E70560D6E700BF8E
:102DE800B8050020014800F089B800BFF4060020AB
:102DF800014800F084B800BFF406002002440346EE
:102E0800934200D1704703F8011BF9E71F2938B531
:102E180005460C4604D9162303604FF0FF3038BD31
:102E2800C26B12B152F821304BB9284600F030F885
:102E3800224601462846BDE8384000F017B8012B65
:102E48000AD0591C03D1162303600120E7E70021AB
:102E580042F82410204698470020E0E7024B01463C
:102E68001868FFF7D3BF00BF0C00002038B5074C27
:102E78000023054608461146236000F0E7F9431C85
:102E880002D1236803B12B6038BD00BFF8060020CB
:102E980000F0D4B938B5064C00230546084623602F
:102EA80000F0DCF9431C02D1236803B12B6038BD64
:102EB800F806002070B50D4B0D4C00261D1BB6EB17
:102EC800A50F09D100F0DAF90A4C0B4B00261D1B9F
:102ED800B6EBA50F05D170BD54F8043B98470136F1
:102EE800EDE754F8043B98470136F1E7E83A000863
:102EF800E83A0008E83A0008EC3A000870477047DA
:102F08000A44914200F1FF3300D1704710B511F81F
:102F1800014B03F8014F9142F9D110BD2DE9F0475B
:102F280082B00646DDF828E00846B4460D46002B78
:102F38004ED18A4214466DD9B2FA82F242B1C2F138
:102F48002003954026FA03F394401D4306FA02FC39
:102F5800260CA7B2B5FBF6F14FEA1C4306FB115548
:102F680043EA054301FB07F0984209D9E31801F148
:102F7800FF3580F00381984240F2008102392344F2
:102F88001B1A1FFA8CFCB3FBF6F006FB10334CEA55
:102F9800034C00FB07F363450AD914EB0C0C00F152
:102FA800FF3580F0ED80634540F2EA80A4440238A2
:102FB80040EA0140ACEB030C0021BEF1000F04D045
:102FC8002CFA02F30022CEE9003202B0BDE8F08705
:102FD8008B4209D9BEF1000F01D0CEE90061002172
:102FE800084602B0BDE8F087B3FA83F11746002916
:102FF8004DD1834202D3B24200F20F81B6EB070CE7
:1030080060EB030301201D46BEF1000FDDD0CEE9C1
:1030180000C5DAE7002A00F098801A46B4FA84F36B
:10302800002B40F0AF800B1B270CA6B20121B3FB8D
:10303800F7F54FEA1C4007FB153340EA034306FB4C
:1030480005F8984507D9E31805F1FF3002D29845ED
:1030580000F2E8800546A3EB08031FFA8CFCB3FBDB
:10306800F7F007FB10334CEA034C06FB00F363450B
:1030780008D914EB0C0C00F1FF3602D2634500F2BC
:10308800CE803046ACEB030C40EA054095E7C1F131
:1030980020058B4022FA05FC4CEA030C00FA01F4E7
:1030A80026FA05F3E84002FA01F943EA04084FEA70
:1030B8001C4206FA01FAB0FBF2F71FFA8CF602FB83
:1030C80017004FEA184444EA004407FB06F0A04200
:1030D8000AD91CEB040407F1FF3380F09C80A0425E
:1030E80040F29980023F6444241A1FFA88F3B4FB23
:1030F800F2F002FB104443EA044300FB06F69E424A
:1031080009D91CEB030300F1FF3480F082809E4252
:103118007FD90238634440EA0740A0FB09749B1B2F
:10312800A3423E46A04664D361D0BEF1000F0AD048
:10313800BAEB060263EB080303FA05F5CA40154328
:10314800CB40CEE9005300213FE7730843EAC1733F
:103158004A08190C41EA02414FEAC67C9BB2B2FB0D
:10316800F4F02646A04627461F2243EA0143B1FB56
:10317800F4F1A3EB080341EA004158E72946FFE6CA
:10318800284615E71A46C3F120019C4026FA01F3A8
:1031980020FA01F190400343270C06FA02FCB1FB28
:1031A800F7F0A6B207FB1015190C41EA054100FB20
:1031B80006F58D423BD9611801D28D4220D8491BB2
:1031C8000138B1FBF7F5019505FB06F8019D9BB2A7
:1031D80007FB151143EA0143434526D2E31805F1DD
:1031E800FF31C6D24345C4D2A91E2344C1E7BA451C
:1031F8009BD2B7EB090664EB0C040138A04694E7B0
:10320800651B29440238B1FBF7F5019505FB06F863
:10321800DCE720467FE71F4666E70846F4E6A44455
:1032280002382FE7023D234415E70199A1E7491B1E
:10323800B1FBF7F5019505FB06F8C7E7024B5822E5
:103248001A604FF0FF307047F8060020024B5822F2
:103258001A604FF0FF307047F8060020044A05490D
:103268001368002B08BF0B461844106018467047B7
:10327800FC06002000070020FEE700BFF8B500BFED
:10328800F8BC08BC9E467047F8B500BFF8BC08BC3F
:043298009E46704797
:10329C0020203E3E3E2072656164526567697374FE
:1032AC00657220454E5452593A207265673D30780C
:1032BC00253032580A0020205350492054583A20C7
:1032CC00307825303258203078253032580A00209A
:1032DC002041626F757420746F20736574204353A2
:1032EC00206C6F772028696E6C696E65290A002046
:1032FC00204353206973206E6F77206C6F772028E2
:10330C00696E6C696E65290A0020205374617274B1
:10331C00696E672064656C6179206C6F6F700A0050
:10332C00202044656C617920636F6D706C657465E9
:10333C000A00202041626F757420746F2063616CE9
:10334C006C2048414C5F5350495F5472616E736DF1
:10335C006974526563656976650A00202048414CA2
:10336C005F5350495F5472616E736D69745265633B
:10337C00656976652072657475726E656420737408
:10338C00617475733D25640A002020535049205206
:10339C00583A203078253032582030782530325841
:1033AC0020287374617475733D2564290A00416388
:1033BC0063656C3A2053657474696E6720435320BF
:1033CC00686967680A00416363656C3A2053504929
:1033DC0020436F6E66696775726174696F6E3A0A25
:1033EC00002020434C4B506F6C61726974793A2009
:1033FC002564202865787065637420323D535049EC
:10340C005F504F4C41524954595F48494748290A2B
:10341C00002020434C4B50686173653A2025642092
:10342C002865787065637420323D5350495F50486D
:10343C004153455F3245444745290A0020204261EB
:10344C00756452617465205072657363616C65724A
:10345C003A20256420286578706563742038290A21
:10346C0000202043532050696E2053746174653AD8
:10347C00202564202865787065637420313D4849A7
:10348C004748290A00416363656C3A204750494F0D
:10349C0020526567697374657220436865636B734A
:1034AC003A0A0020204750494F41204D4F44455285
:1034BC0020285041352F362F37293A2030782530A7
:1034CC00386C580A0020204750494F412041465241
:1034DC005B305D20285041352F362F37293A20306C
:1034EC00782530386C580A0020204750494F452029
:1034FC004D4F4445522028504533293A20307825E9
:10350C0030386C580A0020204750494F45204F4412
:10351C005220285045332062697433293A2025649F
:10352C000A00416363656C3A20535049312053744F
:10353C006174653A0A0020204352313A20307825D4
:10354C003034580A00202053523A20307825303439
:10355C00580A0020204352312E5350452028656EC6
:10356C0061626C6564293A2025640A0041636365D5
:10357C006C3A2052656164696E672057484F5F4111
:10358C004D5F4920726567697374657220283078C5
:10359C003046292E2E2E0A00416363656C3A205763
:1035AC00484F5F414D5F49207265616420666169D7
:1035BC006C6564210A0A00416363656C3A205748C4
:1035CC004F5F414D5F49203D2030782530325820E7
:1035DC0028657870656374656420307825303258BE
:1035EC00290A0A00416363656C3A2057484F5F41D2
:1035FC004D5F49206D69736D61746368210A0A001F
:10360C00416363656C3A20436F6E666967757269D6
:10361C006E67204354524C5F524547342E2E2E0A6F
:10362C000A00416363656C3A204354524C5F524527
:10363C004734207772697465206661696C65642112
:10364C000A0A00416363656C3A20436F6E666967D2
:10365C007572696E67204354524C5F524547352E44
:10366C002E2E0A0A00416363656C3A204354524C77
:10367C005F52454735207772697465206661696CC5
:10368C006564210A0A00416363656C3A20496E69DE
:10369C007420636F6D706C6574652C207761697430
:1036AC00696E6720666F722073746162696C697AE7
:1036BC006174696F6E0A0A003D3D3D20432B2B203F
:1036CC004C6576656C20496E64696361746F722019
:1036DC003D3D3D0A0048414C20696E697469616C3E
:1036EC00697A65640A0053797374656D20636C6F35
:1036FC00636B3A203834204D487A0A004750494FC2
:10370C0020696E697469616C697A65640A00544950
:10371C004D3420696E697469616C697A65642066E0
:10372C006F722050574D0A0050574D2073746172C0
:10373C00746564206F6E20616C6C2034206368614A
:10374C006E6E656C730A00416C6C204C45447320A2
:10375C0073657420746F2066756C6C206272696777
:10376C0068746E65737320286D61783D256C7529BE
:10377C000A000A2D2D2D205374617274696E672016
:10378C0046756C6C204170706C69636174696F6E06
:10379C00202D2D2D0A00535049313A20436F6E666F
:1037AC0069677572696E672E2E2E0A005350493167
:1037BC003A204265666F72652048414C5F53504910
:1037CC005F496E69743A0A002020434C4B506F6C71
:1037DC006172697479203D20256420285350495F1B
:1037EC00504F4C41524954595F48494748203D205D
:1037FC002564290A002020434C4B506861736520D6
:10380C003D20256420285350495F50484153455F63
:10381C003245444745203D202564290A002020429A
:10382C0061756452617465203D20256420285350D5
:10383C00495F4241554452415445505245534341CE
:10384C004C45525F38203D202564290A00535049CD
:10385C00313A2048414C5F5350495F496E6974209E
:10386C0072657475726E65642025642028303D4F36
:10387C004B290A004552524F523A2048414C5F5353
:10388C0050495F496E6974206661696C6564210AF0
:10389C0000535049313A2048617264776172652057
:1038AC00726567697374657220435231203D203014
:1038BC0078253034580A00202042697420302028A2
:1038CC0043504841293A2025640A0020204269745B
:1038DC002031202843504F4C293A2025640A0020DF
:1038EC00204269747320332D3520284252293A2006
:1038FC0025640A00535049313A204578706C69634D
:10390C0069746C7920656E61626C65642C2043521D
:10391C0031203D203078253034580A002020435285
:10392C00312E535045202873686F756C6420626586
:10393C002031293A2025640A00535049313A204954
:10394C006E697420636F6D706C6574650A005350FA
:10395C00493120696E697469616C697A65640A0021
:10396C004F626A6563747320637265617465640A7F
:10397C00004C454420636F6E74726F6C6C657220E2
:10398C00696E697469616C697A65640A0041626F79
:10399C00757420746F2063616C6C20616363656C5B
:1039AC002D3E696E697428292E2E2E0A00616363E0
:1039BC00656C2D3E696E6974282920726574757268
:1039CC006E65643A2025640A004552524F523A20E3
:1039DC00416363656C65726F6D6574657220696EA9
:1039EC006974206661696C6564210A0041636365D2
:1039FC006C65726F6D6574657220696E697469614E
:103A0C006C697A6564207375636365737366756C32
:103A1C006C790A00456E746572696E67206D616918
:103A2C006E206C6F6F702E2E2E0A0A00583A2025CD
:103A3C002E33662C20593A20252E3366207C204CC0
:103A4C004544733A204E3D256420453D2564205362
:103A5C003D256420573D25640A005465726D696EDE
:103A6C00616C00284E554C4C2900000000000000F1
:103A7C000000010203040607080900000000000012
:103A8C005454522052454747455300303132333459
:103A9C0035363738394142434445460000000080F2
:103AAC00DB0F4940DB0F49C0DB0F49BFE4CB1640AD
:103ABC00E4CB16C06937AC3168212233B40F143310
:103ACC006821A2333863ED3EDA0F493F5E987B3FA5
:043ADC00DA0FC93FF5
:083AE00044F4FF7F0100000027
:043AE8009D05000830
:043AEC007505000854
:103AF0000024F4000100000010000000100000206D
:103B000000000000BC050020240600208C060020D8
:103B100000000000000000000000000000000000A5
:103B20000000000000000000000000000000000095
:103B30000000000000000000000000000000000085
:0C3B400000000000000000000000000079
:04000005080028FDCA
:00000001FF
